{
  "contractName": "Wallet",
  "abi": [
    {
      "inputs": [
        {
          "internalType": "address[]",
          "name": "_approvers",
          "type": "address[]"
        },
        {
          "internalType": "uint256",
          "name": "_quorum",
          "type": "uint256"
        }
      ],
      "stateMutability": "nonpayable",
      "type": "constructor"
    },
    {
      "anonymous": false,
      "inputs": [
        {
          "indexed": true,
          "internalType": "address",
          "name": "previousOwner",
          "type": "address"
        },
        {
          "indexed": true,
          "internalType": "address",
          "name": "newOwner",
          "type": "address"
        }
      ],
      "name": "OwnershipTransferred",
      "type": "event"
    },
    {
      "inputs": [
        {
          "internalType": "address",
          "name": "",
          "type": "address"
        },
        {
          "internalType": "uint256",
          "name": "",
          "type": "uint256"
        }
      ],
      "name": "approvals",
      "outputs": [
        {
          "internalType": "bool",
          "name": "",
          "type": "bool"
        }
      ],
      "stateMutability": "view",
      "type": "function",
      "constant": true
    },
    {
      "inputs": [
        {
          "internalType": "uint256",
          "name": "",
          "type": "uint256"
        }
      ],
      "name": "approvers",
      "outputs": [
        {
          "internalType": "address",
          "name": "",
          "type": "address"
        }
      ],
      "stateMutability": "view",
      "type": "function",
      "constant": true
    },
    {
      "inputs": [],
      "name": "owner",
      "outputs": [
        {
          "internalType": "address",
          "name": "",
          "type": "address"
        }
      ],
      "stateMutability": "view",
      "type": "function",
      "constant": true
    },
    {
      "inputs": [],
      "name": "quorum",
      "outputs": [
        {
          "internalType": "uint256",
          "name": "",
          "type": "uint256"
        }
      ],
      "stateMutability": "view",
      "type": "function",
      "constant": true
    },
    {
      "inputs": [],
      "name": "renounceOwnership",
      "outputs": [],
      "stateMutability": "nonpayable",
      "type": "function"
    },
    {
      "inputs": [
        {
          "internalType": "address",
          "name": "newOwner",
          "type": "address"
        }
      ],
      "name": "transferOwnership",
      "outputs": [],
      "stateMutability": "nonpayable",
      "type": "function"
    },
    {
      "inputs": [
        {
          "internalType": "uint256",
          "name": "",
          "type": "uint256"
        }
      ],
      "name": "transfers",
      "outputs": [
        {
          "internalType": "uint256",
          "name": "id",
          "type": "uint256"
        },
        {
          "internalType": "uint256",
          "name": "amount",
          "type": "uint256"
        },
        {
          "internalType": "address payable",
          "name": "to",
          "type": "address"
        },
        {
          "internalType": "uint256",
          "name": "approvals",
          "type": "uint256"
        },
        {
          "internalType": "bool",
          "name": "sent",
          "type": "bool"
        }
      ],
      "stateMutability": "view",
      "type": "function",
      "constant": true
    },
    {
      "stateMutability": "payable",
      "type": "receive",
      "payable": true
    },
    {
      "inputs": [],
      "name": "getApprovers",
      "outputs": [
        {
          "internalType": "address[]",
          "name": "",
          "type": "address[]"
        }
      ],
      "stateMutability": "view",
      "type": "function",
      "constant": true
    },
    {
      "inputs": [],
      "name": "getTransfers",
      "outputs": [
        {
          "components": [
            {
              "internalType": "uint256",
              "name": "id",
              "type": "uint256"
            },
            {
              "internalType": "uint256",
              "name": "amount",
              "type": "uint256"
            },
            {
              "internalType": "address payable",
              "name": "to",
              "type": "address"
            },
            {
              "internalType": "uint256",
              "name": "approvals",
              "type": "uint256"
            },
            {
              "internalType": "bool",
              "name": "sent",
              "type": "bool"
            }
          ],
          "internalType": "struct Wallet.Transfer[]",
          "name": "",
          "type": "tuple[]"
        }
      ],
      "stateMutability": "view",
      "type": "function",
      "constant": true
    },
    {
      "inputs": [
        {
          "internalType": "uint256",
          "name": "amount",
          "type": "uint256"
        },
        {
          "internalType": "address payable",
          "name": "to",
          "type": "address"
        }
      ],
      "name": "createTransfer",
      "outputs": [],
      "stateMutability": "nonpayable",
      "type": "function"
    },
    {
      "inputs": [
        {
          "internalType": "uint256",
          "name": "id",
          "type": "uint256"
        }
      ],
      "name": "approveTransfer",
      "outputs": [],
      "stateMutability": "nonpayable",
      "type": "function"
    }
  ],
  "bytecode": "0x60806040523480156200001157600080fd5b5060405162001979380380620019798339818101604052810190620000379190620002d5565b620000576200004b6200007f60201b60201c565b6200008760201b60201c565b81600190805190602001906200006f9291906200014b565b508060028190555050506200048f565b600033905090565b60008060009054906101000a900473ffffffffffffffffffffffffffffffffffffffff169050816000806101000a81548173ffffffffffffffffffffffffffffffffffffffff021916908373ffffffffffffffffffffffffffffffffffffffff1602179055508173ffffffffffffffffffffffffffffffffffffffff168173ffffffffffffffffffffffffffffffffffffffff167f8be0079c531659141344cd1fd0a4f28419497f9722a3daafe3b4186f6b6457e060405160405180910390a35050565b828054828255906000526020600020908101928215620001c7579160200282015b82811115620001c65782518260006101000a81548173ffffffffffffffffffffffffffffffffffffffff021916908373ffffffffffffffffffffffffffffffffffffffff160217905550916020019190600101906200016c565b5b509050620001d69190620001da565b5090565b5b80821115620001f5576000816000905550600101620001db565b5090565b6000620002106200020a8462000364565b6200033b565b905080838252602082019050828560208602820111156200023657620002356200043b565b5b60005b858110156200026a57816200024f888262000274565b84526020840193506020830192505060018101905062000239565b5050509392505050565b60008151905062000285816200045b565b92915050565b600082601f830112620002a357620002a262000436565b5b8151620002b5848260208601620001f9565b91505092915050565b600081519050620002cf8162000475565b92915050565b60008060408385031215620002ef57620002ee62000445565b5b600083015167ffffffffffffffff81111562000310576200030f62000440565b5b6200031e858286016200028b565b92505060206200033185828601620002be565b9150509250929050565b6000620003476200035a565b9050620003558282620003d1565b919050565b6000604051905090565b600067ffffffffffffffff82111562000382576200038162000407565b5b602082029050602081019050919050565b6000620003a082620003a7565b9050919050565b600073ffffffffffffffffffffffffffffffffffffffff82169050919050565b6000819050919050565b620003dc826200044a565b810181811067ffffffffffffffff82111715620003fe57620003fd62000407565b5b80604052505050565b7f4e487b7100000000000000000000000000000000000000000000000000000000600052604160045260246000fd5b600080fd5b600080fd5b600080fd5b600080fd5b6000601f19601f8301169050919050565b620004668162000393565b81146200047257600080fd5b50565b6200048081620003c7565b81146200048c57600080fd5b50565b6114da806200049f6000396000f3fe6080604052600436106100a05760003560e01c80638da5cb5b116100645780638da5cb5b1461016d5780639377d71114610198578063cacca4a0146101d9578063d3650fb814610202578063f2fde38b1461023f578063ffabc67314610268576100a7565b80631703a018146100ac5780632f65142c146100d75780634c12fa47146101025780636cb3e8ef1461012b578063715018a614610156576100a7565b366100a757005b600080fd5b3480156100b857600080fd5b506100c16102a5565b6040516100ce9190611175565b60405180910390f35b3480156100e357600080fd5b506100ec6102ab565b6040516100f99190611098565b60405180910390f35b34801561010e57600080fd5b5061012960048036038101906101249190610da0565b610399565b005b34801561013757600080fd5b50610140610511565b60405161014d9190611076565b60405180910390f35b34801561016257600080fd5b5061016b61059f565b005b34801561017957600080fd5b50610182610627565b60405161018f919061105b565b60405180910390f35b3480156101a457600080fd5b506101bf60048036038101906101ba9190610d73565b610650565b6040516101d0959493929190611190565b60405180910390f35b3480156101e557600080fd5b5061020060048036038101906101fb9190610d73565b6106c3565b005b34801561020e57600080fd5b5061022960048036038101906102249190610d73565b610a95565b604051610236919061105b565b60405180910390f35b34801561024b57600080fd5b5061026660048036038101906102619190610d06565b610ad4565b005b34801561027457600080fd5b5061028f600480360381019061028a9190610d33565b610bcc565b60405161029c91906110ba565b60405180910390f35b60025481565b60606003805480602002602001604051908101604052809291908181526020016000905b8282101561039057838290600052602060002090600502016040518060a001604052908160008201548152602001600182015481526020016002820160009054906101000a900473ffffffffffffffffffffffffffffffffffffffff1673ffffffffffffffffffffffffffffffffffffffff1673ffffffffffffffffffffffffffffffffffffffff168152602001600382015481526020016004820160009054906101000a900460ff161515151581525050815260200190600101906102cf565b50505050905090565b6103a1610bfb565b73ffffffffffffffffffffffffffffffffffffffff166103bf610627565b73ffffffffffffffffffffffffffffffffffffffff1614610415576040517f08c379a000000000000000000000000000000000000000000000000000000000815260040161040c90611135565b60405180910390fd5b60036040518060a0016040528060038054905081526020018481526020018373ffffffffffffffffffffffffffffffffffffffff16815260200160008152602001600015158152509080600181540180825580915050600190039060005260206000209060050201600090919091909150600082015181600001556020820151816001015560408201518160020160006101000a81548173ffffffffffffffffffffffffffffffffffffffff021916908373ffffffffffffffffffffffffffffffffffffffff1602179055506060820151816003015560808201518160040160006101000a81548160ff02191690831515021790555050505050565b6060600180548060200260200160405190810160405280929190818152602001828054801561059557602002820191906000526020600020905b8160009054906101000a900473ffffffffffffffffffffffffffffffffffffffff1673ffffffffffffffffffffffffffffffffffffffff168152602001906001019080831161054b575b5050505050905090565b6105a7610bfb565b73ffffffffffffffffffffffffffffffffffffffff166105c5610627565b73ffffffffffffffffffffffffffffffffffffffff161461061b576040517f08c379a000000000000000000000000000000000000000000000000000000000815260040161061290611135565b60405180910390fd5b6106256000610c03565b565b60008060009054906101000a900473ffffffffffffffffffffffffffffffffffffffff16905090565b6003818154811061066057600080fd5b90600052602060002090600502016000915090508060000154908060010154908060020160009054906101000a900473ffffffffffffffffffffffffffffffffffffffff16908060030154908060040160009054906101000a900460ff16905085565b6000805b60018054905081101561075e573373ffffffffffffffffffffffffffffffffffffffff16600182815481106106ff576106fe611338565b5b9060005260206000200160009054906101000a900473ffffffffffffffffffffffffffffffffffffffff1673ffffffffffffffffffffffffffffffffffffffff16141561074b57600191505b8080610756906112c0565b9150506106c7565b5060011515811515146107a6576040517f08c379a000000000000000000000000000000000000000000000000000000000815260040161079d90611115565b60405180910390fd5b60001515600383815481106107be576107bd611338565b5b906000526020600020906005020160040160009054906101000a900460ff1615151461081f576040517f08c379a0000000000000000000000000000000000000000000000000000000008152600401610816906110d5565b60405180910390fd5b60001515600460003373ffffffffffffffffffffffffffffffffffffffff1673ffffffffffffffffffffffffffffffffffffffff168152602001908152602001600020600084815260200190815260200160002060009054906101000a900460ff161515146108c3576040517f08c379a00000000000000000000000000000000000000000000000000000000081526004016108ba90611155565b60405180910390fd5b6001600460003373ffffffffffffffffffffffffffffffffffffffff1673ffffffffffffffffffffffffffffffffffffffff168152602001908152602001600020600084815260200190815260200160002060006101000a81548160ff021916908315150217905550600382815481106109405761093f611338565b5b90600052602060002090600502016003016000815480929190610962906112c0565b91905055506002546003838154811061097e5761097d611338565b5b90600052602060002090600502016003015410610a91576001600383815481106109ab576109aa611338565b5b906000526020600020906005020160040160006101000a81548160ff0219169083151502179055506000600383815481106109e9576109e8611338565b5b906000526020600020906005020160020160009054906101000a900473ffffffffffffffffffffffffffffffffffffffff169050600060038481548110610a3357610a32611338565b5b90600052602060002090600502016001015490508173ffffffffffffffffffffffffffffffffffffffff166108fc829081150290604051600060405180830381858888f19350505050158015610a8d573d6000803e3d6000fd5b5050505b5050565b60018181548110610aa557600080fd5b906000526020600020016000915054906101000a900473ffffffffffffffffffffffffffffffffffffffff1681565b610adc610bfb565b73ffffffffffffffffffffffffffffffffffffffff16610afa610627565b73ffffffffffffffffffffffffffffffffffffffff1614610b50576040517f08c379a0000000000000000000000000000000000000000000000000000000008152600401610b4790611135565b60405180910390fd5b600073ffffffffffffffffffffffffffffffffffffffff168173ffffffffffffffffffffffffffffffffffffffff161415610bc0576040517f08c379a0000000000000000000000000000000000000000000000000000000008152600401610bb7906110f5565b60405180910390fd5b610bc981610c03565b50565b60046020528160005260406000206020528060005260406000206000915091509054906101000a900460ff1681565b600033905090565b60008060009054906101000a900473ffffffffffffffffffffffffffffffffffffffff169050816000806101000a81548173ffffffffffffffffffffffffffffffffffffffff021916908373ffffffffffffffffffffffffffffffffffffffff1602179055508173ffffffffffffffffffffffffffffffffffffffff168173ffffffffffffffffffffffffffffffffffffffff167f8be0079c531659141344cd1fd0a4f28419497f9722a3daafe3b4186f6b6457e060405160405180910390a35050565b600081359050610cd68161145f565b92915050565b600081359050610ceb81611476565b92915050565b600081359050610d008161148d565b92915050565b600060208284031215610d1c57610d1b611367565b5b6000610d2a84828501610cc7565b91505092915050565b60008060408385031215610d4a57610d49611367565b5b6000610d5885828601610cc7565b9250506020610d6985828601610cf1565b9150509250929050565b600060208284031215610d8957610d88611367565b5b6000610d9784828501610cf1565b91505092915050565b60008060408385031215610db757610db6611367565b5b6000610dc585828601610cf1565b9250506020610dd685828601610cdc565b9150509250929050565b6000610dec8383610e2e565b60208301905092915050565b6000610e048383610fd5565b60a08301905092915050565b610e1981611278565b82525050565b610e2881611278565b82525050565b610e3781611266565b82525050565b610e4681611266565b82525050565b6000610e5782611203565b610e618185611233565b9350610e6c836111e3565b8060005b83811015610e9d578151610e848882610de0565b9750610e8f83611219565b925050600181019050610e70565b5085935050505092915050565b6000610eb58261120e565b610ebf8185611244565b9350610eca836111f3565b8060005b83811015610efb578151610ee28882610df8565b9750610eed83611226565b925050600181019050610ece565b5085935050505092915050565b610f118161128a565b82525050565b610f208161128a565b82525050565b6000610f33601e83611255565b9150610f3e8261136c565b602082019050919050565b6000610f56602683611255565b9150610f6182611395565b604082019050919050565b6000610f79601583611255565b9150610f84826113e4565b602082019050919050565b6000610f9c602083611255565b9150610fa78261140d565b602082019050919050565b6000610fbf601d83611255565b9150610fca82611436565b602082019050919050565b60a082016000820151610feb600085018261103d565b506020820151610ffe602085018261103d565b5060408201516110116040850182610e10565b506060820151611024606085018261103d565b5060808201516110376080850182610f08565b50505050565b611046816112b6565b82525050565b611055816112b6565b82525050565b60006020820190506110706000830184610e3d565b92915050565b600060208201905081810360008301526110908184610e4c565b905092915050565b600060208201905081810360008301526110b28184610eaa565b905092915050565b60006020820190506110cf6000830184610f17565b92915050565b600060208201905081810360008301526110ee81610f26565b9050919050565b6000602082019050818103600083015261110e81610f49565b9050919050565b6000602082019050818103600083015261112e81610f6c565b9050919050565b6000602082019050818103600083015261114e81610f8f565b9050919050565b6000602082019050818103600083015261116e81610fb2565b9050919050565b600060208201905061118a600083018461104c565b92915050565b600060a0820190506111a5600083018861104c565b6111b2602083018761104c565b6111bf6040830186610e1f565b6111cc606083018561104c565b6111d96080830184610f17565b9695505050505050565b6000819050602082019050919050565b6000819050602082019050919050565b600081519050919050565b600081519050919050565b6000602082019050919050565b6000602082019050919050565b600082825260208201905092915050565b600082825260208201905092915050565b600082825260208201905092915050565b600061127182611296565b9050919050565b600061128382611296565b9050919050565b60008115159050919050565b600073ffffffffffffffffffffffffffffffffffffffff82169050919050565b6000819050919050565b60006112cb826112b6565b91507fffffffffffffffffffffffffffffffffffffffffffffffffffffffffffffffff8214156112fe576112fd611309565b5b600182019050919050565b7f4e487b7100000000000000000000000000000000000000000000000000000000600052601160045260246000fd5b7f4e487b7100000000000000000000000000000000000000000000000000000000600052603260045260246000fd5b600080fd5b7f7472616e736665722068617320616c7265616479206265656e2073656e740000600082015250565b7f4f776e61626c653a206e6577206f776e657220697320746865207a65726f206160008201527f6464726573730000000000000000000000000000000000000000000000000000602082015250565b7f6f6e6c7920617070726f76657220616c6c6f7765640000000000000000000000600082015250565b7f4f776e61626c653a2063616c6c6572206973206e6f7420746865206f776e6572600082015250565b7f63616e6e6f7420617070726f7665207472616e73666572207477696365000000600082015250565b61146881611266565b811461147357600080fd5b50565b61147f81611278565b811461148a57600080fd5b50565b611496816112b6565b81146114a157600080fd5b5056fea2646970667358221220f72c3c05bd09e4f73598fe579a4327a927027e27daa4106a8761522f4810eb1864736f6c63430008070033",
  "immutableReferences": {},
  "source": "// SPDX-License-Identifier: MIT\n\npragma solidity ^0.8.7;\n\nimport \"@openzeppelin/contracts/access/Ownable.sol\";\n\ncontract Wallet is Ownable {\n    address[] public approvers;\n    uint public quorum;\n    struct Transfer {\n        uint id;\n        uint amount;\n        address payable to;\n        uint approvals;\n        bool sent;\n    }\n    Transfer[] public transfers;\n    mapping(address => mapping(uint => bool)) public approvals;\n    \n    constructor(address[] memory _approvers, uint _quorum) {\n        approvers = _approvers;\n        quorum = _quorum;\n    }\n    \n    /// @notice This returns the list of addresses that can approve transfers\n    function getApprovers() external view returns(address[] memory) {\n        return approvers;\n    }\n    \n    /// @notice This returns the list of transfers\n    function getTransfers() external view returns(Transfer[] memory) {\n        return transfers;\n    }\n\n    /// @notice This creates a transfer of an amount to a certain address and adds to the list\n    /// @param amount an amount in Wei\n    /// @param to an address that accepts ether\n    function createTransfer(uint amount, address payable to) external onlyOwner {\n        transfers.push(Transfer(\n            transfers.length,\n            amount,\n            to,\n            0,\n            false\n        ));\n    }\n    \n    /// @notice This allows an address from the approvals list to approve a transfer\n    /// @param id number of approvals\n    function approveTransfer(uint id) external onlyApprover() {\n        require(transfers[id].sent == false, 'transfer has already been sent');\n        require(approvals[msg.sender][id] == false, 'cannot approve transfer twice');\n        \n        approvals[msg.sender][id] = true;\n        transfers[id].approvals++;\n        \n        if(transfers[id].approvals >= quorum) {\n            transfers[id].sent = true;\n            address payable to = transfers[id].to;\n            uint amount = transfers[id].amount;\n            to.transfer(amount);\n        }\n    }\n    \n    /// @notice This allows the address of this smart contract to receive ether\n    receive() external payable {}\n    \n    \n    modifier onlyApprover() {\n        bool allowed = false;\n        for(uint i = 0; i < approvers.length; i++) {\n            if(approvers[i] == msg.sender) {\n                allowed = true;\n            }\n        }\n        require(allowed == true, 'only approver allowed');\n        _;\n    }\n}",
  "sourcePath": "/Users/benzo/wallet2/contracts/Wallet.sol",
  "compiler": {
    "name": "solc",
    "version": "0.8.7+commit.e28d00a7.Emscripten.clang"
  },
  "schemaVersion": "3.2.3",
  "updatedAt": "2022-01-15T16:38:36.905Z",
  "networkType": "ethereum",
  "devdoc": {
    "kind": "dev",
    "methods": {
      "approveTransfer(uint256)": {
        "params": {
          "id": "number of approvals"
        }
      },
      "createTransfer(uint256,address)": {
        "params": {
          "amount": "an amount in Wei",
          "to": "an address that accepts ether"
        }
      },
      "owner()": {
        "details": "Returns the address of the current owner."
      },
      "renounceOwnership()": {
        "details": "Leaves the contract without owner. It will not be possible to call `onlyOwner` functions anymore. Can only be called by the current owner. NOTE: Renouncing ownership will leave the contract without an owner, thereby removing any functionality that is only available to the owner."
      },
      "transferOwnership(address)": {
        "details": "Transfers ownership of the contract to a new account (`newOwner`). Can only be called by the current owner."
      }
    },
    "version": 1
  },
  "userdoc": {
    "kind": "user",
    "methods": {
      "approveTransfer(uint256)": {
        "notice": "This allows an address from the approvals list to approve a transfer"
      },
      "createTransfer(uint256,address)": {
        "notice": "This creates a transfer of an amount to a certain address and adds to the list"
      },
      "getApprovers()": {
        "notice": "This returns the list of addresses that can approve transfers"
      },
      "getTransfers()": {
        "notice": "This returns the list of transfers"
      }
    },
    "version": 1
  }
}